{
  "contractName": "Covid",
  "abi": [
    {
      "inputs": [],
      "payable": false,
      "stateMutability": "nonpayable",
      "type": "constructor"
    },
    {
      "anonymous": false,
      "inputs": [
        {
          "indexed": false,
          "internalType": "string",
          "name": "_name",
          "type": "string"
        }
      ],
      "name": "alertEvent",
      "type": "event"
    },
    {
      "constant": true,
      "inputs": [
        {
          "internalType": "uint256",
          "name": "",
          "type": "uint256"
        }
      ],
      "name": "passengers",
      "outputs": [
        {
          "internalType": "uint256",
          "name": "id",
          "type": "uint256"
        },
        {
          "internalType": "string",
          "name": "passportId",
          "type": "string"
        },
        {
          "internalType": "string",
          "name": "name",
          "type": "string"
        },
        {
          "internalType": "string",
          "name": "from",
          "type": "string"
        },
        {
          "internalType": "string",
          "name": "to",
          "type": "string"
        }
      ],
      "payable": false,
      "stateMutability": "view",
      "type": "function"
    },
    {
      "constant": true,
      "inputs": [],
      "name": "passengersCount",
      "outputs": [
        {
          "internalType": "uint256",
          "name": "",
          "type": "uint256"
        }
      ],
      "payable": false,
      "stateMutability": "view",
      "type": "function"
    },
    {
      "constant": false,
      "inputs": [
        {
          "internalType": "string",
          "name": "_passportId",
          "type": "string"
        },
        {
          "internalType": "string",
          "name": "_name",
          "type": "string"
        },
        {
          "internalType": "string",
          "name": "_from",
          "type": "string"
        },
        {
          "internalType": "string",
          "name": "_to",
          "type": "string"
        }
      ],
      "name": "addPassenger",
      "outputs": [],
      "payable": false,
      "stateMutability": "nonpayable",
      "type": "function"
    }
  ],
  "bytecode": "0x608060405234801561001057600080fd5b506100f76040518060400160405280600781526020017f463134354c6b32000000000000000000000000000000000000000000000000008152506040518060400160405280600381526020017f544f4d00000000000000000000000000000000000000000000000000000000008152506040518060400160405280600681526020017f4c4f4e444f4e00000000000000000000000000000000000000000000000000008152506040518060400160405280600881526020017f4e455720594f524b0000000000000000000000000000000000000000000000008152506100fc60201b60201c565b610313565b6001600081548092919060010191905055506040518060a00160405280600154815260200185815260200184815260200183815260200182815250600080600154815260200190815260200160002060008201518160000155602082015181600101908051906020019061017192919061026e565b50604082015181600201908051906020019061018e92919061026e565b5060608201518160030190805190602001906101ab92919061026e565b5060808201518160040190805190602001906101c892919061026e565b509050507f67922340bf764a76a19ec553f2cd5e60599cf1b19aa31dc05c41faef7b4a1c4a836040518080602001828103825283818151815260200191508051906020019080838360005b8381101561022e578082015181840152602081019050610213565b50505050905090810190601f16801561025b5780820380516001836020036101000a031916815260200191505b509250505060405180910390a150505050565b828054600181600116156101000203166002900490600052602060002090601f016020900481019282601f106102af57805160ff19168380011785556102dd565b828001600101855582156102dd579182015b828111156102dc5782518255916020019190600101906102c1565b5b5090506102ea91906102ee565b5090565b61031091905b8082111561030c5760008160009055506001016102f4565b5090565b90565b6109be80620003236000396000f3fe608060405234801561001057600080fd5b50600436106100415760003560e01c80631b83c413146100465780636f68f54414610064578063c48e1de514610256575b600080fd5b61004e6104d6565b6040518082815260200191505060405180910390f35b6100906004803603602081101561007a57600080fd5b81019080803590602001909291905050506104dc565b6040518086815260200180602001806020018060200180602001858103855289818151815260200191508051906020019080838360005b838110156100e25780820151818401526020810190506100c7565b50505050905090810190601f16801561010f5780820380516001836020036101000a031916815260200191505b50858103845288818151815260200191508051906020019080838360005b8381101561014857808201518184015260208101905061012d565b50505050905090810190601f1680156101755780820380516001836020036101000a031916815260200191505b50858103835287818151815260200191508051906020019080838360005b838110156101ae578082015181840152602081019050610193565b50505050905090810190601f1680156101db5780820380516001836020036101000a031916815260200191505b50858103825286818151815260200191508051906020019080838360005b838110156102145780820151818401526020810190506101f9565b50505050905090810190601f1680156102415780820380516001836020036101000a031916815260200191505b50995050505050505050505060405180910390f35b6104d46004803603608081101561026c57600080fd5b810190808035906020019064010000000081111561028957600080fd5b82018360208201111561029b57600080fd5b803590602001918460018302840111640100000000831117156102bd57600080fd5b91908080601f016020809104026020016040519081016040528093929190818152602001838380828437600081840152601f19601f8201169050808301925050505050505091929192908035906020019064010000000081111561032057600080fd5b82018360208201111561033257600080fd5b8035906020019184600183028401116401000000008311171561035457600080fd5b91908080601f016020809104026020016040519081016040528093929190818152602001838380828437600081840152601f19601f820116905080830192505050505050509192919290803590602001906401000000008111156103b757600080fd5b8201836020820111156103c957600080fd5b803590602001918460018302840111640100000000831117156103eb57600080fd5b91908080601f016020809104026020016040519081016040528093929190818152602001838380828437600081840152601f19601f8201169050808301925050505050505091929192908035906020019064010000000081111561044e57600080fd5b82018360208201111561046057600080fd5b8035906020019184600183028401116401000000008311171561048257600080fd5b91908080601f016020809104026020016040519081016040528093929190818152602001838380828437600081840152601f19601f820116905080830192505050505050509192919290505050610772565b005b60015481565b6000602052806000526040600020600091509050806000015490806001018054600181600116156101000203166002900480601f01602080910402602001604051908101604052809291908181526020018280546001816001161561010002031660029004801561058e5780601f106105635761010080835404028352916020019161058e565b820191906000526020600020905b81548152906001019060200180831161057157829003601f168201915b505050505090806002018054600181600116156101000203166002900480601f01602080910402602001604051908101604052809291908181526020018280546001816001161561010002031660029004801561062c5780601f106106015761010080835404028352916020019161062c565b820191906000526020600020905b81548152906001019060200180831161060f57829003601f168201915b505050505090806003018054600181600116156101000203166002900480601f0160208091040260200160405190810160405280929190818152602001828054600181600116156101000203166002900480156106ca5780601f1061069f576101008083540402835291602001916106ca565b820191906000526020600020905b8154815290600101906020018083116106ad57829003601f168201915b505050505090806004018054600181600116156101000203166002900480601f0160208091040260200160405190810160405280929190818152602001828054600181600116156101000203166002900480156107685780601f1061073d57610100808354040283529160200191610768565b820191906000526020600020905b81548152906001019060200180831161074b57829003601f168201915b5050505050905085565b6001600081548092919060010191905055506040518060a0016040528060015481526020018581526020018481526020018381526020018281525060008060015481526020019081526020016000206000820151816000015560208201518160010190805190602001906107e79291906108e4565b5060408201518160020190805190602001906108049291906108e4565b5060608201518160030190805190602001906108219291906108e4565b50608082015181600401908051906020019061083e9291906108e4565b509050507f67922340bf764a76a19ec553f2cd5e60599cf1b19aa31dc05c41faef7b4a1c4a836040518080602001828103825283818151815260200191508051906020019080838360005b838110156108a4578082015181840152602081019050610889565b50505050905090810190601f1680156108d15780820380516001836020036101000a031916815260200191505b509250505060405180910390a150505050565b828054600181600116156101000203166002900490600052602060002090601f016020900481019282601f1061092557805160ff1916838001178555610953565b82800160010185558215610953579182015b82811115610952578251825591602001919060010190610937565b5b5090506109609190610964565b5090565b61098691905b8082111561098257600081600090555060010161096a565b5090565b9056fea265627a7a72315820bfcd27a7610fe1b5321bcf7b8057987ee4e011b2fb6c0af9d6acfc57e21d016564736f6c63430005100032",
  "source": "//specifying the Solidity version\npragma solidity 0.5.16;\n\n//Creating the contract\n/**\n * The Contest contract does this and that...\n */\ncontract Covid {\n  //Declaring the structure: the properties that model the contestant\n  struct Passenger {\n  \tuint id;\n    string passportId;\n  \tstring name;\n  \tstring from;\n    string to;\n  }\n\n  //use mapping to get or fetch the contestant details\n  mapping (uint => Passenger) public passengers; \n \n  //add a public state variable to keep track of contestants count\n  uint public passengersCount;\n\n  // Vote event\n  event alertEvent(string _name);\n  \n  //Declaring constructor\n  constructor() public {\n    addPassenger(\"F145Lk2\", \"TOM\", \"LONDON\", \"NEW YORK\");\n  }\n\n  //add a function to add an infected Passenger\n  function addPassenger (string memory _passportId, string memory _name, string memory _from,string memory _to) public {\n  \tpassengersCount++;\n  \tpassengers[passengersCount] = Passenger(passengersCount, _passportId, _name, _from, _to);\n    emit alertEvent(_name);\n  }\n  \n}\n\n",
  "sourcePath": "/home/el-mahmoudi/Desktop/sheyma/codivi19tracker/contracts/Covid.sol",
  "compiler": {
    "name": "solc",
    "version": "0.5.16+commit.9c3226ce.Emscripten.clang"
  },
  "schemaVersion": "3.2.3",
  "updatedAt": "2020-08-22T14:31:56.479Z",
  "networkType": "ethereum",
  "devdoc": {
    "methods": {}
  },
  "userdoc": {
    "methods": {},
    "notice": "The Contest contract does this and that..."
  }
}